{
  "_format": "hh-sol-artifact-1",
  "contractName": "EnergyRegistry",
  "sourceName": "contracts/core/EnergyRegistry.sol",
  "abi": [
    {
      "inputs": [
        {
          "internalType": "address",
          "name": "admin",
          "type": "address"
        },
        {
          "internalType": "address",
          "name": "_subToken",
          "type": "address"
        },
        {
          "internalType": "address",
          "name": "_sreToken",
          "type": "address"
        }
      ],
      "stateMutability": "nonpayable",
      "type": "constructor"
    },
    {
      "inputs": [],
      "name": "AccessControlBadConfirmation",
      "type": "error"
    },
    {
      "inputs": [
        {
          "internalType": "address",
          "name": "account",
          "type": "address"
        },
        {
          "internalType": "bytes32",
          "name": "neededRole",
          "type": "bytes32"
        }
      ],
      "name": "AccessControlUnauthorizedAccount",
      "type": "error"
    },
    {
      "anonymous": false,
      "inputs": [
        {
          "indexed": true,
          "internalType": "uint256",
          "name": "recordId",
          "type": "uint256"
        },
        {
          "indexed": true,
          "internalType": "address",
          "name": "producer",
          "type": "address"
        },
        {
          "indexed": false,
          "internalType": "uint256",
          "name": "kwhProduced",
          "type": "uint256"
        },
        {
          "indexed": false,
          "internalType": "uint256",
          "name": "intervalStart",
          "type": "uint256"
        },
        {
          "indexed": false,
          "internalType": "uint256",
          "name": "intervalEnd",
          "type": "uint256"
        },
        {
          "indexed": false,
          "internalType": "bytes32",
          "name": "rawDataHash",
          "type": "bytes32"
        }
      ],
      "name": "ProductionRecorded",
      "type": "event"
    },
    {
      "anonymous": false,
      "inputs": [
        {
          "indexed": true,
          "internalType": "bytes32",
          "name": "role",
          "type": "bytes32"
        },
        {
          "indexed": true,
          "internalType": "bytes32",
          "name": "previousAdminRole",
          "type": "bytes32"
        },
        {
          "indexed": true,
          "internalType": "bytes32",
          "name": "newAdminRole",
          "type": "bytes32"
        }
      ],
      "name": "RoleAdminChanged",
      "type": "event"
    },
    {
      "anonymous": false,
      "inputs": [
        {
          "indexed": true,
          "internalType": "bytes32",
          "name": "role",
          "type": "bytes32"
        },
        {
          "indexed": true,
          "internalType": "address",
          "name": "account",
          "type": "address"
        },
        {
          "indexed": true,
          "internalType": "address",
          "name": "sender",
          "type": "address"
        }
      ],
      "name": "RoleGranted",
      "type": "event"
    },
    {
      "anonymous": false,
      "inputs": [
        {
          "indexed": true,
          "internalType": "bytes32",
          "name": "role",
          "type": "bytes32"
        },
        {
          "indexed": true,
          "internalType": "address",
          "name": "account",
          "type": "address"
        },
        {
          "indexed": true,
          "internalType": "address",
          "name": "sender",
          "type": "address"
        }
      ],
      "name": "RoleRevoked",
      "type": "event"
    },
    {
      "inputs": [],
      "name": "DEFAULT_ADMIN_ROLE",
      "outputs": [
        {
          "internalType": "bytes32",
          "name": "",
          "type": "bytes32"
        }
      ],
      "stateMutability": "view",
      "type": "function"
    },
    {
      "inputs": [],
      "name": "PRECISION",
      "outputs": [
        {
          "internalType": "uint256",
          "name": "",
          "type": "uint256"
        }
      ],
      "stateMutability": "view",
      "type": "function"
    },
    {
      "inputs": [],
      "name": "RECORDER_ROLE",
      "outputs": [
        {
          "internalType": "bytes32",
          "name": "",
          "type": "bytes32"
        }
      ],
      "stateMutability": "view",
      "type": "function"
    },
    {
      "inputs": [],
      "name": "alpha",
      "outputs": [
        {
          "internalType": "uint256",
          "name": "",
          "type": "uint256"
        }
      ],
      "stateMutability": "view",
      "type": "function"
    },
    {
      "inputs": [],
      "name": "baseRate",
      "outputs": [
        {
          "internalType": "uint256",
          "name": "",
          "type": "uint256"
        }
      ],
      "stateMutability": "view",
      "type": "function"
    },
    {
      "inputs": [
        {
          "internalType": "uint256",
          "name": "kwhProduced",
          "type": "uint256"
        }
      ],
      "name": "calculateReward",
      "outputs": [
        {
          "internalType": "uint256",
          "name": "",
          "type": "uint256"
        }
      ],
      "stateMutability": "view",
      "type": "function"
    },
    {
      "inputs": [],
      "name": "getNetworkProduction",
      "outputs": [
        {
          "internalType": "uint256",
          "name": "",
          "type": "uint256"
        }
      ],
      "stateMutability": "view",
      "type": "function"
    },
    {
      "inputs": [
        {
          "internalType": "uint256",
          "name": "recordId",
          "type": "uint256"
        }
      ],
      "name": "getRecord",
      "outputs": [
        {
          "components": [
            {
              "internalType": "address",
              "name": "producer",
              "type": "address"
            },
            {
              "internalType": "string",
              "name": "inverterId",
              "type": "string"
            },
            {
              "internalType": "uint256",
              "name": "kwhProduced",
              "type": "uint256"
            },
            {
              "internalType": "uint256",
              "name": "intervalStart",
              "type": "uint256"
            },
            {
              "internalType": "uint256",
              "name": "intervalEnd",
              "type": "uint256"
            },
            {
              "internalType": "bytes32",
              "name": "rawDataHash",
              "type": "bytes32"
            },
            {
              "internalType": "uint256",
              "name": "recordedAt",
              "type": "uint256"
            }
          ],
          "internalType": "struct IEnergyRegistry.EnergyRecord",
          "name": "",
          "type": "tuple"
        }
      ],
      "stateMutability": "view",
      "type": "function"
    },
    {
      "inputs": [
        {
          "internalType": "bytes32",
          "name": "role",
          "type": "bytes32"
        }
      ],
      "name": "getRoleAdmin",
      "outputs": [
        {
          "internalType": "bytes32",
          "name": "",
          "type": "bytes32"
        }
      ],
      "stateMutability": "view",
      "type": "function"
    },
    {
      "inputs": [
        {
          "internalType": "address",
          "name": "producer",
          "type": "address"
        }
      ],
      "name": "getTotalProduction",
      "outputs": [
        {
          "internalType": "uint256",
          "name": "",
          "type": "uint256"
        }
      ],
      "stateMutability": "view",
      "type": "function"
    },
    {
      "inputs": [
        {
          "internalType": "bytes32",
          "name": "role",
          "type": "bytes32"
        },
        {
          "internalType": "address",
          "name": "account",
          "type": "address"
        }
      ],
      "name": "grantRole",
      "outputs": [],
      "stateMutability": "nonpayable",
      "type": "function"
    },
    {
      "inputs": [
        {
          "internalType": "bytes32",
          "name": "role",
          "type": "bytes32"
        },
        {
          "internalType": "address",
          "name": "account",
          "type": "address"
        }
      ],
      "name": "hasRole",
      "outputs": [
        {
          "internalType": "bool",
          "name": "",
          "type": "bool"
        }
      ],
      "stateMutability": "view",
      "type": "function"
    },
    {
      "inputs": [],
      "name": "networkTotalKwh",
      "outputs": [
        {
          "internalType": "uint256",
          "name": "",
          "type": "uint256"
        }
      ],
      "stateMutability": "view",
      "type": "function"
    },
    {
      "inputs": [],
      "name": "nextRecordId",
      "outputs": [
        {
          "internalType": "uint256",
          "name": "",
          "type": "uint256"
        }
      ],
      "stateMutability": "view",
      "type": "function"
    },
    {
      "inputs": [
        {
          "internalType": "address",
          "name": "",
          "type": "address"
        }
      ],
      "name": "producerTotalKwh",
      "outputs": [
        {
          "internalType": "uint256",
          "name": "",
          "type": "uint256"
        }
      ],
      "stateMutability": "view",
      "type": "function"
    },
    {
      "inputs": [
        {
          "internalType": "address",
          "name": "producer",
          "type": "address"
        },
        {
          "internalType": "string",
          "name": "inverterId",
          "type": "string"
        },
        {
          "internalType": "uint256",
          "name": "kwhProduced",
          "type": "uint256"
        },
        {
          "internalType": "uint256",
          "name": "intervalStart",
          "type": "uint256"
        },
        {
          "internalType": "uint256",
          "name": "intervalEnd",
          "type": "uint256"
        },
        {
          "internalType": "bytes32",
          "name": "rawDataHash",
          "type": "bytes32"
        }
      ],
      "name": "recordProduction",
      "outputs": [
        {
          "internalType": "uint256",
          "name": "recordId",
          "type": "uint256"
        }
      ],
      "stateMutability": "nonpayable",
      "type": "function"
    },
    {
      "inputs": [
        {
          "internalType": "bytes32",
          "name": "role",
          "type": "bytes32"
        },
        {
          "internalType": "address",
          "name": "callerConfirmation",
          "type": "address"
        }
      ],
      "name": "renounceRole",
      "outputs": [],
      "stateMutability": "nonpayable",
      "type": "function"
    },
    {
      "inputs": [
        {
          "internalType": "bytes32",
          "name": "role",
          "type": "bytes32"
        },
        {
          "internalType": "address",
          "name": "account",
          "type": "address"
        }
      ],
      "name": "revokeRole",
      "outputs": [],
      "stateMutability": "nonpayable",
      "type": "function"
    },
    {
      "inputs": [],
      "name": "sreToken",
      "outputs": [
        {
          "internalType": "contract SREToken",
          "name": "",
          "type": "address"
        }
      ],
      "stateMutability": "view",
      "type": "function"
    },
    {
      "inputs": [],
      "name": "subToken",
      "outputs": [
        {
          "internalType": "contract SUBToken",
          "name": "",
          "type": "address"
        }
      ],
      "stateMutability": "view",
      "type": "function"
    },
    {
      "inputs": [
        {
          "internalType": "bytes4",
          "name": "interfaceId",
          "type": "bytes4"
        }
      ],
      "name": "supportsInterface",
      "outputs": [
        {
          "internalType": "bool",
          "name": "",
          "type": "bool"
        }
      ],
      "stateMutability": "view",
      "type": "function"
    },
    {
      "inputs": [],
      "name": "totalProducers",
      "outputs": [
        {
          "internalType": "uint256",
          "name": "",
          "type": "uint256"
        }
      ],
      "stateMutability": "view",
      "type": "function"
    },
    {
      "inputs": [
        {
          "internalType": "uint256",
          "name": "_baseRate",
          "type": "uint256"
        },
        {
          "internalType": "uint256",
          "name": "_alpha",
          "type": "uint256"
        }
      ],
      "name": "updateEmissionParams",
      "outputs": [],
      "stateMutability": "nonpayable",
      "type": "function"
    }
  ],
  "bytecode": "0x6080604052678ac7230489e80000600a55662386f26fc10000600b553480156200002857600080fd5b50604051620012bd380380620012bd8339810160408190526200004b9162000185565b62000058600084620000b9565b50620000857ff996da754c790e95d5c7ca3330cfcad529487fe9d1d8edb7afc65076fdf9adb484620000b9565b50600180546001600160a01b039384166001600160a01b0319918216179091556002805492909316911617905550620001cf565b6000828152602081815260408083206001600160a01b038516845290915281205460ff166200015e576000838152602081815260408083206001600160a01b03861684529091529020805460ff19166001179055620001153390565b6001600160a01b0316826001600160a01b0316847f2f8788117e7eff1d82e926ec794901d17c78024a50270940304540a733656f0d60405160405180910390a450600162000162565b5060005b92915050565b80516001600160a01b03811681146200018057600080fd5b919050565b6000806000606084860312156200019b57600080fd5b620001a68462000168565b9250620001b66020850162000168565b9150620001c66040850162000168565b90509250925092565b6110de80620001df6000396000f3fe608060405234801561001057600080fd5b506004361061014d5760003560e01c806391d14854116100c3578063d36aae911161007c578063d36aae91146102f9578063d547741f14610301578063db1d0fd514610314578063dbde207d1461031d578063ddf7b9f214610326578063e9ffa9f41461033957600080fd5b806391d148541461028c578063a217fddf1461029f578063aaf5eb68146102a7578063b2db6140146102b6578063bea86581146102bf578063d2d7231f146102e657600080fd5b8063248a9ca311610115578063248a9ca3146101fa5780632f2ff15d1461021d57806336568abe146102325780634df80b90146102455780637ad97fe8146102585780638b28cffa1461028357600080fd5b806301ffc9a71461015257806302753f201461017a57806303e9e609146101a85780631f68f20a146101c85780631fe6da35146101d1575b600080fd5b610165610160366004610c84565b61034c565b60405190151581526020015b60405180910390f35b61019a610188366004610cd1565b60056020526000908152604090205481565b604051908152602001610171565b6101bb6101b6366004610cec565b610383565b6040516101719190610d05565b61019a600a5481565b61019a6101df366004610cd1565b6001600160a01b031660009081526005602052604090205490565b61019a610208366004610cec565b60009081526020819052604090206001015490565b61023061022b366004610da7565b610514565b005b610230610240366004610da7565b61053f565b61019a610253366004610dd3565b610577565b60025461026b906001600160a01b031681565b6040516001600160a01b039091168152602001610171565b61019a60065481565b61016561029a366004610da7565b610a1b565b61019a600081565b61019a670de0b6b3a764000081565b61019a60075481565b61019a7ff996da754c790e95d5c7ca3330cfcad529487fe9d1d8edb7afc65076fdf9adb481565b61019a6102f4366004610cec565b610a44565b60065461019a565b61023061030f366004610da7565b610ab1565b61019a600b5481565b61019a60045481565b610230610334366004610e76565b610ad6565b60015461026b906001600160a01b031681565b60006001600160e01b03198216637965db0b60e01b148061037d57506301ffc9a760e01b6001600160e01b03198316145b92915050565b6103cf6040518060e0016040528060006001600160a01b031681526020016060815260200160008152602001600081526020016000815260200160008019168152602001600081525090565b600454821061041d5760405162461bcd60e51b8152602060048201526015602482015274149958dbdc9908191bd95cc81b9bdd08195e1a5cdd605a1b60448201526064015b60405180910390fd5b600082815260036020908152604091829020825160e0810190935280546001600160a01b03168352600181018054919284019161045990610e98565b80601f016020809104026020016040519081016040528092919081815260200182805461048590610e98565b80156104d25780601f106104a7576101008083540402835291602001916104d2565b820191906000526020600020905b8154815290600101906020018083116104b557829003601f168201915b50505050508152602001600282015481526020016003820154815260200160048201548152602001600582015481526020016006820154815250509050919050565b60008281526020819052604090206001015461052f81610b3d565b6105398383610b4a565b50505050565b6001600160a01b03811633146105685760405163334bd91960e11b815260040160405180910390fd5b6105728282610bdc565b505050565b60007ff996da754c790e95d5c7ca3330cfcad529487fe9d1d8edb7afc65076fdf9adb46105a381610b3d565b6001600160a01b0389166105f95760405162461bcd60e51b815260206004820152601860248201527f496e76616c69642070726f6475636572206164647265737300000000000000006044820152606401610414565b600086116106405760405162461bcd60e51b81526020600482015260146024820152736b5768206d75737420626520706f73697469766560601b6044820152606401610414565b8484116106875760405162461bcd60e51b8152602060048201526015602482015274125b9d985b1a59081d1a5b59481a5b9d195c9d985b605a1b6044820152606401610414565b600089898988886040516020016106a2959493929190610ed2565b60408051601f1981840301815291815281516020928301206000818152600990935291205490915060ff16156107115760405162461bcd60e51b8152602060048201526014602482015273223ab83634b1b0ba329039bab136b4b9b9b4b7b760611b6044820152606401610414565b6000818152600960205260408120805460ff19166001179055600480549161073883610f1d565b9190505592506040518060e001604052808b6001600160a01b031681526020018a8a8080601f016020809104026020016040519081016040528093929190818152602001838380828437600092018290525093855250505060208083018b905260408084018b9052606084018a9052608084018990524260a09094019390935286825260038152919020825181546001600160a01b0319166001600160a01b039091161781559082015160018201906107f19082610f9c565b506040828101516002830155606083015160038301556080830151600483015560a0830151600583015560c0909201516006909101556001600160a01b038b1660009081526008602052205460ff1661087b576001600160a01b038a166000908152600860205260408120805460ff19166001179055600780549161087583610f1d565b91905055505b6001600160a01b038a16600090815260056020526040812080548992906108a390849061105c565b9250508190555086600660008282546108bc919061105c565b90915550600090506108d588662386f26fc1000061106f565b6001546040516340c10f1960e01b81526001600160a01b038e81166004830152602482018490529293509116906340c10f1990604401600060405180830381600087803b15801561092557600080fd5b505af1158015610939573d6000803e3d6000fd5b50505050600061094889610a44565b905080156109b7576002546040516340c10f1960e01b81526001600160a01b038e8116600483015260248201849052909116906340c10f1990604401600060405180830381600087803b15801561099e57600080fd5b505af11580156109b2573d6000803e3d6000fd5b505050505b604080518a8152602081018a9052908101889052606081018790526001600160a01b038d169086907f95d82aff88f37f9e52837ecbc3e8f3197672584114fa5f7c92781797fed336c79060800160405180910390a350505050979650505050505050565b6000918252602082815260408084206001600160a01b0393909316845291905290205460ff1690565b600080600754600b54610a57919061106f565b610a6990670de0b6b3a764000061105c565b9050600081670de0b6b3a7640000600a54610a84919061106f565b610a8e9190611086565b905060006064610a9e868461106f565b610aa89190611086565b95945050505050565b600082815260208190526040902060010154610acc81610b3d565b6105398383610bdc565b6000610ae181610b3d565b60008311610b315760405162461bcd60e51b815260206004820152601a60248201527f426173652072617465206d75737420626520706f7369746976650000000000006044820152606401610414565b50600a91909155600b55565b610b478133610c47565b50565b6000610b568383610a1b565b610bd4576000838152602081815260408083206001600160a01b03861684529091529020805460ff19166001179055610b8c3390565b6001600160a01b0316826001600160a01b0316847f2f8788117e7eff1d82e926ec794901d17c78024a50270940304540a733656f0d60405160405180910390a450600161037d565b50600061037d565b6000610be88383610a1b565b15610bd4576000838152602081815260408083206001600160a01b0386168085529252808320805460ff1916905551339286917ff6391f5c32d9c69d2a47ea670b442974b53935d1edc7fd64eb21e047a839171b9190a450600161037d565b610c518282610a1b565b610c805760405163e2517d3f60e01b81526001600160a01b038216600482015260248101839052604401610414565b5050565b600060208284031215610c9657600080fd5b81356001600160e01b031981168114610cae57600080fd5b9392505050565b80356001600160a01b0381168114610ccc57600080fd5b919050565b600060208284031215610ce357600080fd5b610cae82610cb5565b600060208284031215610cfe57600080fd5b5035919050565b6000602080835260018060a01b038451166020840152602084015160e0604085015280518061010086015260005b81811015610d505782810184015186820161012001528301610d33565b50610120925060008382870101526040860151606086015260608601516080860152608086015160a086015260a086015160c086015260c086015160e086015282601f19601f830116860101935050505092915050565b60008060408385031215610dba57600080fd5b82359150610dca60208401610cb5565b90509250929050565b600080600080600080600060c0888a031215610dee57600080fd5b610df788610cb5565b9650602088013567ffffffffffffffff80821115610e1457600080fd5b818a0191508a601f830112610e2857600080fd5b813581811115610e3757600080fd5b8b6020828501011115610e4957600080fd5b989b6020929092019a50979860408101359850606081013597506080810135965060a00135945092505050565b60008060408385031215610e8957600080fd5b50508035926020909101359150565b600181811c90821680610eac57607f821691505b602082108103610ecc57634e487b7160e01b600052602260045260246000fd5b50919050565b6bffffffffffffffffffffffff198660601b168152838560148301376014930192830191909152603482015260540192915050565b634e487b7160e01b600052601160045260246000fd5b600060018201610f2f57610f2f610f07565b5060010190565b634e487b7160e01b600052604160045260246000fd5b601f821115610572576000816000526020600020601f850160051c81016020861015610f755750805b601f850160051c820191505b81811015610f9457828155600101610f81565b505050505050565b815167ffffffffffffffff811115610fb657610fb6610f36565b610fca81610fc48454610e98565b84610f4c565b602080601f831160018114610fff5760008415610fe75750858301515b600019600386901b1c1916600185901b178555610f94565b600085815260208120601f198616915b8281101561102e5788860151825594840194600190910190840161100f565b508582101561104c5787850151600019600388901b60f8161c191681555b5050505050600190811b01905550565b8082018082111561037d5761037d610f07565b808202811582820484141761037d5761037d610f07565b6000826110a357634e487b7160e01b600052601260045260246000fd5b50049056fea264697066735822122091cdc1dc71dc6bd02cce8df8f40ab7520b440db6beba13e0e6b3404beb2e08e964736f6c63430008180033",
  "linkReferences": {},
  "deployedLinkReferences": {}
}