{
  "_format": "hh-sol-artifact-1",
  "contractName": "SREToken",
  "sourceName": "contracts/core/SREToken.sol",
  "abi": [
    {
      "inputs": [
        {
          "internalType": "address",
          "name": "admin",
          "type": "address"
        }
      ],
      "stateMutability": "nonpayable",
      "type": "constructor"
    },
    {
      "inputs": [],
      "name": "AccessControlBadConfirmation",
      "type": "error"
    },
    {
      "inputs": [
        {
          "internalType": "address",
          "name": "account",
          "type": "address"
        },
        {
          "internalType": "bytes32",
          "name": "neededRole",
          "type": "bytes32"
        }
      ],
      "name": "AccessControlUnauthorizedAccount",
      "type": "error"
    },
    {
      "inputs": [
        {
          "internalType": "address",
          "name": "spender",
          "type": "address"
        },
        {
          "internalType": "uint256",
          "name": "allowance",
          "type": "uint256"
        },
        {
          "internalType": "uint256",
          "name": "needed",
          "type": "uint256"
        }
      ],
      "name": "ERC20InsufficientAllowance",
      "type": "error"
    },
    {
      "inputs": [
        {
          "internalType": "address",
          "name": "sender",
          "type": "address"
        },
        {
          "internalType": "uint256",
          "name": "balance",
          "type": "uint256"
        },
        {
          "internalType": "uint256",
          "name": "needed",
          "type": "uint256"
        }
      ],
      "name": "ERC20InsufficientBalance",
      "type": "error"
    },
    {
      "inputs": [
        {
          "internalType": "address",
          "name": "approver",
          "type": "address"
        }
      ],
      "name": "ERC20InvalidApprover",
      "type": "error"
    },
    {
      "inputs": [
        {
          "internalType": "address",
          "name": "receiver",
          "type": "address"
        }
      ],
      "name": "ERC20InvalidReceiver",
      "type": "error"
    },
    {
      "inputs": [
        {
          "internalType": "address",
          "name": "sender",
          "type": "address"
        }
      ],
      "name": "ERC20InvalidSender",
      "type": "error"
    },
    {
      "inputs": [
        {
          "internalType": "address",
          "name": "spender",
          "type": "address"
        }
      ],
      "name": "ERC20InvalidSpender",
      "type": "error"
    },
    {
      "anonymous": false,
      "inputs": [
        {
          "indexed": true,
          "internalType": "address",
          "name": "owner",
          "type": "address"
        },
        {
          "indexed": true,
          "internalType": "address",
          "name": "spender",
          "type": "address"
        },
        {
          "indexed": false,
          "internalType": "uint256",
          "name": "value",
          "type": "uint256"
        }
      ],
      "name": "Approval",
      "type": "event"
    },
    {
      "anonymous": false,
      "inputs": [
        {
          "indexed": true,
          "internalType": "bytes32",
          "name": "role",
          "type": "bytes32"
        },
        {
          "indexed": true,
          "internalType": "bytes32",
          "name": "previousAdminRole",
          "type": "bytes32"
        },
        {
          "indexed": true,
          "internalType": "bytes32",
          "name": "newAdminRole",
          "type": "bytes32"
        }
      ],
      "name": "RoleAdminChanged",
      "type": "event"
    },
    {
      "anonymous": false,
      "inputs": [
        {
          "indexed": true,
          "internalType": "bytes32",
          "name": "role",
          "type": "bytes32"
        },
        {
          "indexed": true,
          "internalType": "address",
          "name": "account",
          "type": "address"
        },
        {
          "indexed": true,
          "internalType": "address",
          "name": "sender",
          "type": "address"
        }
      ],
      "name": "RoleGranted",
      "type": "event"
    },
    {
      "anonymous": false,
      "inputs": [
        {
          "indexed": true,
          "internalType": "bytes32",
          "name": "role",
          "type": "bytes32"
        },
        {
          "indexed": true,
          "internalType": "address",
          "name": "account",
          "type": "address"
        },
        {
          "indexed": true,
          "internalType": "address",
          "name": "sender",
          "type": "address"
        }
      ],
      "name": "RoleRevoked",
      "type": "event"
    },
    {
      "anonymous": false,
      "inputs": [
        {
          "indexed": true,
          "internalType": "address",
          "name": "from",
          "type": "address"
        },
        {
          "indexed": false,
          "internalType": "uint256",
          "name": "amount",
          "type": "uint256"
        },
        {
          "indexed": false,
          "internalType": "uint256",
          "name": "timestamp",
          "type": "uint256"
        }
      ],
      "name": "SREBurned",
      "type": "event"
    },
    {
      "anonymous": false,
      "inputs": [
        {
          "indexed": true,
          "internalType": "address",
          "name": "to",
          "type": "address"
        },
        {
          "indexed": false,
          "internalType": "uint256",
          "name": "amount",
          "type": "uint256"
        },
        {
          "indexed": false,
          "internalType": "uint256",
          "name": "timestamp",
          "type": "uint256"
        }
      ],
      "name": "SREMinted",
      "type": "event"
    },
    {
      "anonymous": false,
      "inputs": [
        {
          "indexed": true,
          "internalType": "address",
          "name": "from",
          "type": "address"
        },
        {
          "indexed": true,
          "internalType": "address",
          "name": "to",
          "type": "address"
        },
        {
          "indexed": false,
          "internalType": "uint256",
          "name": "value",
          "type": "uint256"
        }
      ],
      "name": "Transfer",
      "type": "event"
    },
    {
      "inputs": [],
      "name": "DEFAULT_ADMIN_ROLE",
      "outputs": [
        {
          "internalType": "bytes32",
          "name": "",
          "type": "bytes32"
        }
      ],
      "stateMutability": "view",
      "type": "function"
    },
    {
      "inputs": [],
      "name": "MINTER_ROLE",
      "outputs": [
        {
          "internalType": "bytes32",
          "name": "",
          "type": "bytes32"
        }
      ],
      "stateMutability": "view",
      "type": "function"
    },
    {
      "inputs": [
        {
          "internalType": "address",
          "name": "owner",
          "type": "address"
        },
        {
          "internalType": "address",
          "name": "spender",
          "type": "address"
        }
      ],
      "name": "allowance",
      "outputs": [
        {
          "internalType": "uint256",
          "name": "",
          "type": "uint256"
        }
      ],
      "stateMutability": "view",
      "type": "function"
    },
    {
      "inputs": [
        {
          "internalType": "address",
          "name": "spender",
          "type": "address"
        },
        {
          "internalType": "uint256",
          "name": "value",
          "type": "uint256"
        }
      ],
      "name": "approve",
      "outputs": [
        {
          "internalType": "bool",
          "name": "",
          "type": "bool"
        }
      ],
      "stateMutability": "nonpayable",
      "type": "function"
    },
    {
      "inputs": [
        {
          "internalType": "address",
          "name": "account",
          "type": "address"
        }
      ],
      "name": "balanceOf",
      "outputs": [
        {
          "internalType": "uint256",
          "name": "",
          "type": "uint256"
        }
      ],
      "stateMutability": "view",
      "type": "function"
    },
    {
      "inputs": [
        {
          "internalType": "uint256",
          "name": "amount",
          "type": "uint256"
        }
      ],
      "name": "burn",
      "outputs": [],
      "stateMutability": "nonpayable",
      "type": "function"
    },
    {
      "inputs": [
        {
          "internalType": "address",
          "name": "from",
          "type": "address"
        },
        {
          "internalType": "uint256",
          "name": "amount",
          "type": "uint256"
        }
      ],
      "name": "burnFrom",
      "outputs": [],
      "stateMutability": "nonpayable",
      "type": "function"
    },
    {
      "inputs": [],
      "name": "decimals",
      "outputs": [
        {
          "internalType": "uint8",
          "name": "",
          "type": "uint8"
        }
      ],
      "stateMutability": "view",
      "type": "function"
    },
    {
      "inputs": [
        {
          "internalType": "bytes32",
          "name": "role",
          "type": "bytes32"
        }
      ],
      "name": "getRoleAdmin",
      "outputs": [
        {
          "internalType": "bytes32",
          "name": "",
          "type": "bytes32"
        }
      ],
      "stateMutability": "view",
      "type": "function"
    },
    {
      "inputs": [
        {
          "internalType": "bytes32",
          "name": "role",
          "type": "bytes32"
        },
        {
          "internalType": "address",
          "name": "account",
          "type": "address"
        }
      ],
      "name": "grantRole",
      "outputs": [],
      "stateMutability": "nonpayable",
      "type": "function"
    },
    {
      "inputs": [
        {
          "internalType": "bytes32",
          "name": "role",
          "type": "bytes32"
        },
        {
          "internalType": "address",
          "name": "account",
          "type": "address"
        }
      ],
      "name": "hasRole",
      "outputs": [
        {
          "internalType": "bool",
          "name": "",
          "type": "bool"
        }
      ],
      "stateMutability": "view",
      "type": "function"
    },
    {
      "inputs": [
        {
          "internalType": "address",
          "name": "to",
          "type": "address"
        },
        {
          "internalType": "uint256",
          "name": "amount",
          "type": "uint256"
        }
      ],
      "name": "mint",
      "outputs": [],
      "stateMutability": "nonpayable",
      "type": "function"
    },
    {
      "inputs": [],
      "name": "name",
      "outputs": [
        {
          "internalType": "string",
          "name": "",
          "type": "string"
        }
      ],
      "stateMutability": "view",
      "type": "function"
    },
    {
      "inputs": [
        {
          "internalType": "bytes32",
          "name": "role",
          "type": "bytes32"
        },
        {
          "internalType": "address",
          "name": "callerConfirmation",
          "type": "address"
        }
      ],
      "name": "renounceRole",
      "outputs": [],
      "stateMutability": "nonpayable",
      "type": "function"
    },
    {
      "inputs": [
        {
          "internalType": "bytes32",
          "name": "role",
          "type": "bytes32"
        },
        {
          "internalType": "address",
          "name": "account",
          "type": "address"
        }
      ],
      "name": "revokeRole",
      "outputs": [],
      "stateMutability": "nonpayable",
      "type": "function"
    },
    {
      "inputs": [
        {
          "internalType": "bytes4",
          "name": "interfaceId",
          "type": "bytes4"
        }
      ],
      "name": "supportsInterface",
      "outputs": [
        {
          "internalType": "bool",
          "name": "",
          "type": "bool"
        }
      ],
      "stateMutability": "view",
      "type": "function"
    },
    {
      "inputs": [],
      "name": "symbol",
      "outputs": [
        {
          "internalType": "string",
          "name": "",
          "type": "string"
        }
      ],
      "stateMutability": "view",
      "type": "function"
    },
    {
      "inputs": [],
      "name": "totalBurned",
      "outputs": [
        {
          "internalType": "uint256",
          "name": "",
          "type": "uint256"
        }
      ],
      "stateMutability": "view",
      "type": "function"
    },
    {
      "inputs": [],
      "name": "totalSupply",
      "outputs": [
        {
          "internalType": "uint256",
          "name": "",
          "type": "uint256"
        }
      ],
      "stateMutability": "view",
      "type": "function"
    },
    {
      "inputs": [
        {
          "internalType": "address",
          "name": "to",
          "type": "address"
        },
        {
          "internalType": "uint256",
          "name": "value",
          "type": "uint256"
        }
      ],
      "name": "transfer",
      "outputs": [
        {
          "internalType": "bool",
          "name": "",
          "type": "bool"
        }
      ],
      "stateMutability": "nonpayable",
      "type": "function"
    },
    {
      "inputs": [
        {
          "internalType": "address",
          "name": "from",
          "type": "address"
        },
        {
          "internalType": "address",
          "name": "to",
          "type": "address"
        },
        {
          "internalType": "uint256",
          "name": "value",
          "type": "uint256"
        }
      ],
      "name": "transferFrom",
      "outputs": [
        {
          "internalType": "bool",
          "name": "",
          "type": "bool"
        }
      ],
      "stateMutability": "nonpayable",
      "type": "function"
    }
  ],
  "bytecode": "0x60806040523480156200001157600080fd5b5060405162001075380380620010758339810160408190526200003491620001a0565b6040518060400160405280601b81526020017f537562736964697a65642052656e657761626c6520456e6572677900000000008152506040518060400160405280600381526020016253524560e81b815250816003908162000097919062000279565b506004620000a6828262000279565b50620000b891506000905082620000ed565b50620000e57f9f2df0fed2c77648de5860a4cc508cd0818c85b8b8a1ab4ceeef8d981c8956a682620000ed565b505062000345565b60008281526005602090815260408083206001600160a01b038516845290915281205460ff16620001965760008381526005602090815260408083206001600160a01b03861684529091529020805460ff191660011790556200014d3390565b6001600160a01b0316826001600160a01b0316847f2f8788117e7eff1d82e926ec794901d17c78024a50270940304540a733656f0d60405160405180910390a45060016200019a565b5060005b92915050565b600060208284031215620001b357600080fd5b81516001600160a01b0381168114620001cb57600080fd5b9392505050565b634e487b7160e01b600052604160045260246000fd5b600181811c90821680620001fd57607f821691505b6020821081036200021e57634e487b7160e01b600052602260045260246000fd5b50919050565b601f82111562000274576000816000526020600020601f850160051c810160208610156200024f5750805b601f850160051c820191505b8181101562000270578281556001016200025b565b5050505b505050565b81516001600160401b03811115620002955762000295620001d2565b620002ad81620002a68454620001e8565b8462000224565b602080601f831160018114620002e55760008415620002cc5750858301515b600019600386901b1c1916600185901b17855562000270565b600085815260208120601f198616915b828110156200031657888601518255948401946001909101908401620002f5565b5085821015620003355787850151600019600388901b60f8161c191681555b5050505050600190811b01905550565b610d2080620003556000396000f3fe608060405234801561001057600080fd5b50600436106101375760003560e01c806342966c68116100b8578063a217fddf1161007c578063a217fddf14610288578063a9059cbb14610290578063d5391393146102a3578063d547741f146102ca578063d89135cd146102dd578063dd62ed3e146102e657600080fd5b806342966c681461021e57806370a082311461023157806379cc67901461025a57806391d148541461026d57806395d89b411461028057600080fd5b8063248a9ca3116100ff578063248a9ca3146101b15780632f2ff15d146101d4578063313ce567146101e957806336568abe146101f857806340c10f191461020b57600080fd5b806301ffc9a71461013c57806306fdde0314610164578063095ea7b31461017957806318160ddd1461018c57806323b872dd1461019e575b600080fd5b61014f61014a366004610b03565b61031f565b60405190151581526020015b60405180910390f35b61016c610330565b60405161015b9190610b34565b61014f610187366004610b9f565b6103c2565b6002545b60405190815260200161015b565b61014f6101ac366004610bc9565b6103da565b6101906101bf366004610c05565b60009081526005602052604090206001015490565b6101e76101e2366004610c1e565b6103fe565b005b6040516012815260200161015b565b6101e7610206366004610c1e565b610429565b6101e7610219366004610b9f565b610461565b6101e761022c366004610c05565b6104dd565b61019061023f366004610c4a565b6001600160a01b031660009081526020819052604090205490565b6101e7610268366004610b9f565b61053a565b61014f61027b366004610c1e565b6105a2565b61016c6105cd565b610190600081565b61014f61029e366004610b9f565b6105dc565b6101907f9f2df0fed2c77648de5860a4cc508cd0818c85b8b8a1ab4ceeef8d981c8956a681565b6101e76102d8366004610c1e565b6105ea565b61019060065481565b6101906102f4366004610c65565b6001600160a01b03918216600090815260016020908152604080832093909416825291909152205490565b600061032a8261060f565b92915050565b60606003805461033f90610c8f565b80601f016020809104026020016040519081016040528092919081815260200182805461036b90610c8f565b80156103b85780601f1061038d576101008083540402835291602001916103b8565b820191906000526020600020905b81548152906001019060200180831161039b57829003601f168201915b5050505050905090565b6000336103d0818585610644565b5060019392505050565b6000336103e8858285610651565b6103f38585856106cf565b506001949350505050565b6000828152600560205260409020600101546104198161072e565b610423838361073b565b50505050565b6001600160a01b03811633146104525760405163334bd91960e11b815260040160405180910390fd5b61045c82826107cf565b505050565b7f9f2df0fed2c77648de5860a4cc508cd0818c85b8b8a1ab4ceeef8d981c8956a661048b8161072e565b610495838361083c565b604080518381524260208201526001600160a01b038516917f97664bfecd6206355a87619f8b0c588839655044f7369120338a57881b37b6ba910160405180910390a2505050565b6104e681610876565b80600660008282546104f89190610cc9565b90915550506040805182815242602082015233917fe7b9605bce92eb1a22823003fa2a1a766a37bb8382d39976879cba248a73a7d8910160405180910390a250565b6105448282610880565b80600660008282546105569190610cc9565b9091555050604080518281524260208201526001600160a01b038416917fe7b9605bce92eb1a22823003fa2a1a766a37bb8382d39976879cba248a73a7d8910160405180910390a25050565b60009182526005602090815260408084206001600160a01b0393909316845291905290205460ff1690565b60606004805461033f90610c8f565b6000336103d08185856106cf565b6000828152600560205260409020600101546106058161072e565b61042383836107cf565b60006001600160e01b03198216637965db0b60e01b148061032a57506301ffc9a760e01b6001600160e01b031983161461032a565b61045c8383836001610895565b6001600160a01b0383811660009081526001602090815260408083209386168352929052205460001981101561042357818110156106c057604051637dc7a0d960e11b81526001600160a01b038416600482015260248101829052604481018390526064015b60405180910390fd5b61042384848484036000610895565b6001600160a01b0383166106f957604051634b637e8f60e11b8152600060048201526024016106b7565b6001600160a01b0382166107235760405163ec442f0560e01b8152600060048201526024016106b7565b61045c83838361096a565b6107388133610a94565b50565b600061074783836105a2565b6107c75760008381526005602090815260408083206001600160a01b03861684529091529020805460ff1916600117905561077f3390565b6001600160a01b0316826001600160a01b0316847f2f8788117e7eff1d82e926ec794901d17c78024a50270940304540a733656f0d60405160405180910390a450600161032a565b50600061032a565b60006107db83836105a2565b156107c75760008381526005602090815260408083206001600160a01b0386168085529252808320805460ff1916905551339286917ff6391f5c32d9c69d2a47ea670b442974b53935d1edc7fd64eb21e047a839171b9190a450600161032a565b6001600160a01b0382166108665760405163ec442f0560e01b8152600060048201526024016106b7565b6108726000838361096a565b5050565b6107383382610acd565b61088b823383610651565b6108728282610acd565b6001600160a01b0384166108bf5760405163e602df0560e01b8152600060048201526024016106b7565b6001600160a01b0383166108e957604051634a1406b160e11b8152600060048201526024016106b7565b6001600160a01b038085166000908152600160209081526040808320938716835292905220829055801561042357826001600160a01b0316846001600160a01b03167f8c5be1e5ebec7d5bd14f71427d1e84f3dd0314c0f7b2291e5b200ac8c7c3b9258460405161095c91815260200190565b60405180910390a350505050565b6001600160a01b03831661099557806002600082825461098a9190610cc9565b90915550610a079050565b6001600160a01b038316600090815260208190526040902054818110156109e85760405163391434e360e21b81526001600160a01b038516600482015260248101829052604481018390526064016106b7565b6001600160a01b03841660009081526020819052604090209082900390555b6001600160a01b038216610a2357600280548290039055610a42565b6001600160a01b03821660009081526020819052604090208054820190555b816001600160a01b0316836001600160a01b03167fddf252ad1be2c89b69c2b068fc378daa952ba7f163c4a11628f55a4df523b3ef83604051610a8791815260200190565b60405180910390a3505050565b610a9e82826105a2565b6108725760405163e2517d3f60e01b81526001600160a01b0382166004820152602481018390526044016106b7565b6001600160a01b038216610af757604051634b637e8f60e11b8152600060048201526024016106b7565b6108728260008361096a565b600060208284031215610b1557600080fd5b81356001600160e01b031981168114610b2d57600080fd5b9392505050565b60006020808352835180602085015260005b81811015610b6257858101830151858201604001528201610b46565b506000604082860101526040601f19601f8301168501019250505092915050565b80356001600160a01b0381168114610b9a57600080fd5b919050565b60008060408385031215610bb257600080fd5b610bbb83610b83565b946020939093013593505050565b600080600060608486031215610bde57600080fd5b610be784610b83565b9250610bf560208501610b83565b9150604084013590509250925092565b600060208284031215610c1757600080fd5b5035919050565b60008060408385031215610c3157600080fd5b82359150610c4160208401610b83565b90509250929050565b600060208284031215610c5c57600080fd5b610b2d82610b83565b60008060408385031215610c7857600080fd5b610c8183610b83565b9150610c4160208401610b83565b600181811c90821680610ca357607f821691505b602082108103610cc357634e487b7160e01b600052602260045260246000fd5b50919050565b8082018082111561032a57634e487b7160e01b600052601160045260246000fdfea264697066735822122008381ea6d391e444175b1e5bdcbb6094431a0b46f6734a97d7d97b87a415727b64736f6c63430008180033",
  "linkReferences": {},
  "deployedLinkReferences": {}
}